{
  "contractName": "Dex",
  "abi": [
    {
      "inputs": [
        {
          "internalType": "address",
          "name": "token_addr",
          "type": "address"
        }
      ],
      "stateMutability": "nonpayable",
      "type": "constructor"
    },
    {
      "inputs": [
        {
          "internalType": "address",
          "name": "",
          "type": "address"
        }
      ],
      "name": "liquidity",
      "outputs": [
        {
          "internalType": "uint256",
          "name": "",
          "type": "uint256"
        }
      ],
      "stateMutability": "view",
      "type": "function",
      "constant": true
    },
    {
      "inputs": [],
      "name": "totalLiquidity",
      "outputs": [
        {
          "internalType": "uint256",
          "name": "",
          "type": "uint256"
        }
      ],
      "stateMutability": "view",
      "type": "function",
      "constant": true
    },
    {
      "inputs": [
        {
          "internalType": "uint256",
          "name": "tokens",
          "type": "uint256"
        }
      ],
      "name": "init",
      "outputs": [
        {
          "internalType": "uint256",
          "name": "",
          "type": "uint256"
        }
      ],
      "stateMutability": "payable",
      "type": "function",
      "payable": true
    },
    {
      "inputs": [
        {
          "internalType": "uint256",
          "name": "input_amount",
          "type": "uint256"
        },
        {
          "internalType": "uint256",
          "name": "input_reserve",
          "type": "uint256"
        },
        {
          "internalType": "uint256",
          "name": "output_reserve",
          "type": "uint256"
        }
      ],
      "name": "price",
      "outputs": [
        {
          "internalType": "uint256",
          "name": "",
          "type": "uint256"
        }
      ],
      "stateMutability": "pure",
      "type": "function",
      "constant": true
    },
    {
      "inputs": [],
      "name": "ethToToken",
      "outputs": [
        {
          "internalType": "uint256",
          "name": "",
          "type": "uint256"
        }
      ],
      "stateMutability": "payable",
      "type": "function",
      "payable": true
    },
    {
      "inputs": [
        {
          "internalType": "uint256",
          "name": "tokens",
          "type": "uint256"
        }
      ],
      "name": "tokenToEth",
      "outputs": [
        {
          "internalType": "uint256",
          "name": "",
          "type": "uint256"
        }
      ],
      "stateMutability": "payable",
      "type": "function",
      "payable": true
    },
    {
      "inputs": [],
      "name": "deposit",
      "outputs": [
        {
          "internalType": "uint256",
          "name": "",
          "type": "uint256"
        }
      ],
      "stateMutability": "payable",
      "type": "function",
      "payable": true
    },
    {
      "inputs": [
        {
          "internalType": "uint256",
          "name": "amount",
          "type": "uint256"
        }
      ],
      "name": "withdraw",
      "outputs": [
        {
          "internalType": "uint256",
          "name": "",
          "type": "uint256"
        },
        {
          "internalType": "uint256",
          "name": "",
          "type": "uint256"
        }
      ],
      "stateMutability": "payable",
      "type": "function",
      "payable": true
    }
  ],
  "bytecode": "0x608060405234801561001057600080fd5b50604051620011e2380380620011e28339818101604052810190610034919061008f565b806000806101000a81548173ffffffffffffffffffffffffffffffffffffffff021916908373ffffffffffffffffffffffffffffffffffffffff16021790555050610101565b600081519050610089816100ea565b92915050565b6000602082840312156100a157600080fd5b60006100af8482850161007a565b91505092915050565b60006100c3826100ca565b9050919050565b600073ffffffffffffffffffffffffffffffffffffffff82169050919050565b6100f3816100b8565b81146100fe57600080fd5b50565b6110d180620001116000396000f3fe60806040526004361061007b5760003560e01c8063789770f41161004e578063789770f414610149578063b7b0422d14610167578063b8c876b114610197578063d0e30db0146101d45761007b565b806315770f92146100805780632071a9f4146100ab5780632e1a7d4d146100e857806370b2a30f14610119575b600080fd5b34801561008c57600080fd5b506100956101f2565b6040516100a29190610e46565b60405180910390f35b3480156100b757600080fd5b506100d260048036038101906100cd9190610cfe565b6101f8565b6040516100df9190610e46565b60405180910390f35b61010260048036038101906100fd9190610cac565b610250565b604051610110929190610e61565b60405180910390f35b610133600480360381019061012e9190610cac565b6104e8565b6040516101409190610e46565b60405180910390f35b6101516106ae565b60405161015e9190610e46565b60405180910390f35b610181600480360381019061017c9190610cac565b610834565b60405161018e9190610e46565b60405180910390f35b3480156101a357600080fd5b506101be60048036038101906101b99190610c5a565b610987565b6040516101cb9190610e46565b60405180910390f35b6101dc61099f565b6040516101e99190610e46565b60405180910390f35b60015481565b6000806103e5856102099190610f22565b9050600083826102199190610f22565b90506000826103e88761022c9190610f22565b6102369190610e9b565b905080826102449190610ef1565b93505050509392505050565b60008060008060009054906101000a900473ffffffffffffffffffffffffffffffffffffffff1673ffffffffffffffffffffffffffffffffffffffff166370a08231306040518263ffffffff1660e01b81526004016102af9190610dab565b60206040518083038186803b1580156102c757600080fd5b505afa1580156102db573d6000803e3d6000fd5b505050506040513d601f19601f820116820180604052508101906102ff9190610cd5565b9050600060015447866103129190610f22565b61031c9190610ef1565b90506000600154838761032f9190610f22565b6103399190610ef1565b905081600260003373ffffffffffffffffffffffffffffffffffffffff1673ffffffffffffffffffffffffffffffffffffffff168152602001908152602001600020546103869190610f7c565b600260003373ffffffffffffffffffffffffffffffffffffffff1673ffffffffffffffffffffffffffffffffffffffff16815260200190815260200160002081905550816001546103d79190610f7c565b6001819055503373ffffffffffffffffffffffffffffffffffffffff166108fc839081150290604051600060405180830381858888f19350505050158015610423573d6000803e3d6000fd5b5060008054906101000a900473ffffffffffffffffffffffffffffffffffffffff1673ffffffffffffffffffffffffffffffffffffffff1663a9059cbb33836040518363ffffffff1660e01b815260040161047f929190610dfd565b602060405180830381600087803b15801561049957600080fd5b505af11580156104ad573d6000803e3d6000fd5b505050506040513d601f19601f820116820180604052508101906104d19190610c83565b6104da57600080fd5b818194509450505050915091565b60008060008054906101000a900473ffffffffffffffffffffffffffffffffffffffff1673ffffffffffffffffffffffffffffffffffffffff166370a08231306040518263ffffffff1660e01b81526004016105449190610dab565b60206040518083038186803b15801561055c57600080fd5b505afa158015610570573d6000803e3d6000fd5b505050506040513d601f19601f820116820180604052508101906105949190610cd5565b905060006105a38483476101f8565b90503373ffffffffffffffffffffffffffffffffffffffff166108fc829081150290604051600060405180830381858888f193505050501580156105eb573d6000803e3d6000fd5b5060008054906101000a900473ffffffffffffffffffffffffffffffffffffffff1673ffffffffffffffffffffffffffffffffffffffff166323b872dd3330876040518463ffffffff1660e01b815260040161064993929190610dc6565b602060405180830381600087803b15801561066357600080fd5b505af1158015610677573d6000803e3d6000fd5b505050506040513d601f19601f8201168201806040525081019061069b9190610c83565b6106a457600080fd5b8092505050919050565b60008060008054906101000a900473ffffffffffffffffffffffffffffffffffffffff1673ffffffffffffffffffffffffffffffffffffffff166370a08231306040518263ffffffff1660e01b815260040161070a9190610dab565b60206040518083038186803b15801561072257600080fd5b505afa158015610736573d6000803e3d6000fd5b505050506040513d601f19601f8201168201806040525081019061075a9190610cd5565b9050600061077434344761076e9190610f7c565b846101f8565b905060008054906101000a900473ffffffffffffffffffffffffffffffffffffffff1673ffffffffffffffffffffffffffffffffffffffff1663a9059cbb33836040518363ffffffff1660e01b81526004016107d1929190610dfd565b602060405180830381600087803b1580156107eb57600080fd5b505af11580156107ff573d6000803e3d6000fd5b505050506040513d601f19601f820116820180604052508101906108239190610c83565b61082c57600080fd5b809250505090565b6000806001541461087a576040517f08c379a000000000000000000000000000000000000000000000000000000000815260040161087190610e26565b60405180910390fd5b47600181905550600154600260003373ffffffffffffffffffffffffffffffffffffffff1673ffffffffffffffffffffffffffffffffffffffff1681526020019081526020016000208190555060008054906101000a900473ffffffffffffffffffffffffffffffffffffffff1673ffffffffffffffffffffffffffffffffffffffff1663a9059cbb33846040518363ffffffff1660e01b8152600401610922929190610dfd565b602060405180830381600087803b15801561093c57600080fd5b505af1158015610950573d6000803e3d6000fd5b505050506040513d601f19601f820116820180604052508101906109749190610c83565b61097d57600080fd5b6001549050919050565b60026020528060005260406000206000915090505481565b60008034476109ae9190610f7c565b905060008060009054906101000a900473ffffffffffffffffffffffffffffffffffffffff1673ffffffffffffffffffffffffffffffffffffffff166370a08231306040518263ffffffff1660e01b8152600401610a0c9190610dab565b60206040518083038186803b158015610a2457600080fd5b505afa158015610a38573d6000803e3d6000fd5b505050506040513d601f19601f82011682018060405250810190610a5c9190610cd5565b905060006001838334610a6f9190610f22565b610a799190610ef1565b610a839190610e9b565b905060008360015434610a969190610f22565b610aa09190610ef1565b905080600260003373ffffffffffffffffffffffffffffffffffffffff1673ffffffffffffffffffffffffffffffffffffffff16815260200190815260200160002054610aed9190610e9b565b600260003373ffffffffffffffffffffffffffffffffffffffff1673ffffffffffffffffffffffffffffffffffffffff1681526020019081526020016000208190555080600154610b3e9190610e9b565b60018190555060008054906101000a900473ffffffffffffffffffffffffffffffffffffffff1673ffffffffffffffffffffffffffffffffffffffff166323b872dd3330856040518463ffffffff1660e01b8152600401610ba193929190610dc6565b602060405180830381600087803b158015610bbb57600080fd5b505af1158015610bcf573d6000803e3d6000fd5b505050506040513d601f19601f82011682018060405250810190610bf39190610c83565b610bfc57600080fd5b8094505050505090565b600081359050610c1581611056565b92915050565b600081519050610c2a8161106d565b92915050565b600081359050610c3f81611084565b92915050565b600081519050610c5481611084565b92915050565b600060208284031215610c6c57600080fd5b6000610c7a84828501610c06565b91505092915050565b600060208284031215610c9557600080fd5b6000610ca384828501610c1b565b91505092915050565b600060208284031215610cbe57600080fd5b6000610ccc84828501610c30565b91505092915050565b600060208284031215610ce757600080fd5b6000610cf584828501610c45565b91505092915050565b600080600060608486031215610d1357600080fd5b6000610d2186828701610c30565b9350506020610d3286828701610c30565b9250506040610d4386828701610c30565b9150509250925092565b610d5681610fb0565b82525050565b6000610d69601983610e8a565b91507f44455820616c726561647920686173206c6971756964697479000000000000006000830152602082019050919050565b610da581610fee565b82525050565b6000602082019050610dc06000830184610d4d565b92915050565b6000606082019050610ddb6000830186610d4d565b610de86020830185610d4d565b610df56040830184610d9c565b949350505050565b6000604082019050610e126000830185610d4d565b610e1f6020830184610d9c565b9392505050565b60006020820190508181036000830152610e3f81610d5c565b9050919050565b6000602082019050610e5b6000830184610d9c565b92915050565b6000604082019050610e766000830185610d9c565b610e836020830184610d9c565b9392505050565b600082825260208201905092915050565b6000610ea682610fee565b9150610eb183610fee565b9250827fffffffffffffffffffffffffffffffffffffffffffffffffffffffffffffffff03821115610ee657610ee5610ff8565b5b828201905092915050565b6000610efc82610fee565b9150610f0783610fee565b925082610f1757610f16611027565b5b828204905092915050565b6000610f2d82610fee565b9150610f3883610fee565b9250817fffffffffffffffffffffffffffffffffffffffffffffffffffffffffffffffff0483118215151615610f7157610f70610ff8565b5b828202905092915050565b6000610f8782610fee565b9150610f9283610fee565b925082821015610fa557610fa4610ff8565b5b828203905092915050565b6000610fbb82610fce565b9050919050565b60008115159050919050565b600073ffffffffffffffffffffffffffffffffffffffff82169050919050565b6000819050919050565b7f4e487b7100000000000000000000000000000000000000000000000000000000600052601160045260246000fd5b7f4e487b7100000000000000000000000000000000000000000000000000000000600052601260045260246000fd5b61105f81610fb0565b811461106a57600080fd5b50565b61107681610fc2565b811461108157600080fd5b50565b61108d81610fee565b811461109857600080fd5b5056fea2646970667358221220d90c296a545f74caf0dbb20b3f3dbfa6a4ceb45289ada64144c6357c0fdd460164736f6c63430008000033",
  "immutableReferences": {},
  "source": "//SPDX-License-Identifier: MIT\r\n\r\npragma solidity 0.8.0;\r\n\r\nimport '@openzeppelin/contracts/token/ERC20/IERC20.sol';\r\n\r\ncontract Dex {\r\n    IERC20 token;\r\n    uint256 public totalLiquidity;\r\n\r\n    mapping(address => uint256) public liquidity; \r\n\r\n    constructor(address token_addr) {\r\n        token = IERC20(token_addr);\r\n    }\r\n\r\n    function init(uint256 tokens) public payable returns (uint256) {\r\n        require(totalLiquidity == 0, \"DEX already has liquidity\");\r\n        totalLiquidity = address(this).balance;\r\n        liquidity[msg.sender] = totalLiquidity;\r\n        //require(token.transferFrom(msg.sender, address(this), tokens));\r\n        require(token.transfer(msg.sender, tokens));\r\n        return totalLiquidity;\r\n\r\n    }\r\n\r\n    function price(uint256 input_amount, uint256 input_reserve, uint256 output_reserve) public pure returns (uint256) {\r\n        uint256 input_amount_with_fee = input_amount * 997;\r\n        uint256 numerator = input_amount_with_fee * output_reserve;\r\n        uint256 denominator = input_reserve * 1000 + input_amount_with_fee;\r\n        return numerator / denominator; \r\n    }\r\n\r\n    function ethToToken() public payable returns (uint256) {\r\n        uint256 token_reserve = token.balanceOf(address(this));\r\n        uint256 token_bought = price(msg.value, address(this).balance - (msg.value), token_reserve);\r\n        require(token.transfer(msg.sender, token_bought));\r\n        return token_bought;\r\n    }\r\n\r\n    function tokenToEth(uint256 tokens) public payable returns (uint256) {\r\n        uint256 token_reserve = token.balanceOf(address(this));\r\n        uint256 eth_bought = price(tokens, token_reserve, address(this).balance);\r\n        payable(msg.sender).transfer(eth_bought);\r\n        require(token.transferFrom(msg.sender, address(this), tokens));\r\n        return eth_bought;\r\n    }\r\n\r\n    function deposit() public payable returns (uint256) {\r\n        uint256 eth_reserve = address(this).balance - (msg.value);\r\n        uint256 token_reserve = token.balanceOf(address(this));\r\n        uint256 token_amount = (msg.value * (token_reserve) / eth_reserve) + 1;\r\n        uint256 liquidity_minted = msg.value * totalLiquidity / eth_reserve;\r\n        liquidity[msg.sender] = liquidity[msg.sender] + liquidity_minted;\r\n        totalLiquidity = totalLiquidity + liquidity_minted;\r\n        require(token.transferFrom(msg.sender, address(this), token_amount));\r\n        return liquidity_minted;\r\n    }\r\n\r\n    function withdraw(uint256 amount) public payable returns (uint256, uint256) {\r\n        uint256 token_reserve = token.balanceOf(address(this));\r\n        uint256 eth_amount = amount * address(this).balance / totalLiquidity;\r\n        uint256 token_amount = amount * token_reserve / totalLiquidity;\r\n        liquidity[msg.sender] = liquidity[msg.sender] - eth_amount;\r\n        totalLiquidity = totalLiquidity - eth_amount;\r\n        payable(msg.sender).transfer(eth_amount);\r\n        require(token.transfer(msg.sender, token_amount));\r\n        return (eth_amount, token_amount);\r\n    }\r\n\r\n\r\n\r\n}",
  "sourcePath": "C:/Users/Tarzan/Desktop/WaterfallSwap/dex/contracts/Dex.sol",
  "compiler": {
    "name": "solc",
    "version": "0.8.0+commit.c7dfd78e.Emscripten.clang"
  },
  "schemaVersion": "3.3.4",
  "updatedAt": "2022-11-03T09:18:40.137Z",
  "networkType": "ethereum",
  "devdoc": {
    "kind": "dev",
    "methods": {},
    "version": 1
  },
  "userdoc": {
    "kind": "user",
    "methods": {},
    "version": 1
  }
}